{
  "_format": "hh-sol-artifact-1",
  "contractName": "MyEpicNFT",
  "sourceName": "contracts/MyEpicNFT.sol",
  "abi": [
    {
      "inputs": [],
      "stateMutability": "nonpayable",
      "type": "constructor"
    },
    {
      "anonymous": false,
      "inputs": [
        {
          "indexed": true,
          "internalType": "address",
          "name": "owner",
          "type": "address"
        },
        {
          "indexed": true,
          "internalType": "address",
          "name": "approved",
          "type": "address"
        },
        {
          "indexed": true,
          "internalType": "uint256",
          "name": "tokenId",
          "type": "uint256"
        }
      ],
      "name": "Approval",
      "type": "event"
    },
    {
      "anonymous": false,
      "inputs": [
        {
          "indexed": true,
          "internalType": "address",
          "name": "owner",
          "type": "address"
        },
        {
          "indexed": true,
          "internalType": "address",
          "name": "operator",
          "type": "address"
        },
        {
          "indexed": false,
          "internalType": "bool",
          "name": "approved",
          "type": "bool"
        }
      ],
      "name": "ApprovalForAll",
      "type": "event"
    },
    {
      "anonymous": false,
      "inputs": [
        {
          "indexed": false,
          "internalType": "address",
          "name": "sender",
          "type": "address"
        },
        {
          "indexed": false,
          "internalType": "uint256",
          "name": "tokenId",
          "type": "uint256"
        }
      ],
      "name": "NewEpicNFTMinted",
      "type": "event"
    },
    {
      "anonymous": false,
      "inputs": [
        {
          "indexed": true,
          "internalType": "address",
          "name": "from",
          "type": "address"
        },
        {
          "indexed": true,
          "internalType": "address",
          "name": "to",
          "type": "address"
        },
        {
          "indexed": true,
          "internalType": "uint256",
          "name": "tokenId",
          "type": "uint256"
        }
      ],
      "name": "Transfer",
      "type": "event"
    },
    {
      "inputs": [
        {
          "internalType": "address",
          "name": "to",
          "type": "address"
        },
        {
          "internalType": "uint256",
          "name": "tokenId",
          "type": "uint256"
        }
      ],
      "name": "approve",
      "outputs": [],
      "stateMutability": "nonpayable",
      "type": "function"
    },
    {
      "inputs": [
        {
          "internalType": "address",
          "name": "owner",
          "type": "address"
        }
      ],
      "name": "balanceOf",
      "outputs": [
        {
          "internalType": "uint256",
          "name": "",
          "type": "uint256"
        }
      ],
      "stateMutability": "view",
      "type": "function"
    },
    {
      "inputs": [
        {
          "internalType": "uint256",
          "name": "tokenId",
          "type": "uint256"
        }
      ],
      "name": "getApproved",
      "outputs": [
        {
          "internalType": "address",
          "name": "",
          "type": "address"
        }
      ],
      "stateMutability": "view",
      "type": "function"
    },
    {
      "inputs": [],
      "name": "getTotalMintedNFTs",
      "outputs": [
        {
          "internalType": "uint256",
          "name": "",
          "type": "uint256"
        }
      ],
      "stateMutability": "view",
      "type": "function"
    },
    {
      "inputs": [
        {
          "internalType": "address",
          "name": "owner",
          "type": "address"
        },
        {
          "internalType": "address",
          "name": "operator",
          "type": "address"
        }
      ],
      "name": "isApprovedForAll",
      "outputs": [
        {
          "internalType": "bool",
          "name": "",
          "type": "bool"
        }
      ],
      "stateMutability": "view",
      "type": "function"
    },
    {
      "inputs": [],
      "name": "makeAnEpicNFT",
      "outputs": [],
      "stateMutability": "nonpayable",
      "type": "function"
    },
    {
      "inputs": [],
      "name": "name",
      "outputs": [
        {
          "internalType": "string",
          "name": "",
          "type": "string"
        }
      ],
      "stateMutability": "view",
      "type": "function"
    },
    {
      "inputs": [
        {
          "internalType": "uint256",
          "name": "tokenId",
          "type": "uint256"
        }
      ],
      "name": "ownerOf",
      "outputs": [
        {
          "internalType": "address",
          "name": "",
          "type": "address"
        }
      ],
      "stateMutability": "view",
      "type": "function"
    },
    {
      "inputs": [
        {
          "internalType": "uint256",
          "name": "tokenId",
          "type": "uint256"
        }
      ],
      "name": "pickRandomAction",
      "outputs": [
        {
          "internalType": "string",
          "name": "",
          "type": "string"
        }
      ],
      "stateMutability": "view",
      "type": "function"
    },
    {
      "inputs": [
        {
          "internalType": "uint256",
          "name": "tokenId",
          "type": "uint256"
        }
      ],
      "name": "pickRandomColour",
      "outputs": [
        {
          "internalType": "string",
          "name": "",
          "type": "string"
        }
      ],
      "stateMutability": "view",
      "type": "function"
    },
    {
      "inputs": [
        {
          "internalType": "uint256",
          "name": "tokenId",
          "type": "uint256"
        }
      ],
      "name": "pickRandomFood",
      "outputs": [
        {
          "internalType": "string",
          "name": "",
          "type": "string"
        }
      ],
      "stateMutability": "view",
      "type": "function"
    },
    {
      "inputs": [
        {
          "internalType": "uint256",
          "name": "tokenId",
          "type": "uint256"
        }
      ],
      "name": "pickRandomWriter",
      "outputs": [
        {
          "internalType": "string",
          "name": "",
          "type": "string"
        }
      ],
      "stateMutability": "view",
      "type": "function"
    },
    {
      "inputs": [
        {
          "internalType": "address",
          "name": "from",
          "type": "address"
        },
        {
          "internalType": "address",
          "name": "to",
          "type": "address"
        },
        {
          "internalType": "uint256",
          "name": "tokenId",
          "type": "uint256"
        }
      ],
      "name": "safeTransferFrom",
      "outputs": [],
      "stateMutability": "nonpayable",
      "type": "function"
    },
    {
      "inputs": [
        {
          "internalType": "address",
          "name": "from",
          "type": "address"
        },
        {
          "internalType": "address",
          "name": "to",
          "type": "address"
        },
        {
          "internalType": "uint256",
          "name": "tokenId",
          "type": "uint256"
        },
        {
          "internalType": "bytes",
          "name": "_data",
          "type": "bytes"
        }
      ],
      "name": "safeTransferFrom",
      "outputs": [],
      "stateMutability": "nonpayable",
      "type": "function"
    },
    {
      "inputs": [
        {
          "internalType": "address",
          "name": "operator",
          "type": "address"
        },
        {
          "internalType": "bool",
          "name": "approved",
          "type": "bool"
        }
      ],
      "name": "setApprovalForAll",
      "outputs": [],
      "stateMutability": "nonpayable",
      "type": "function"
    },
    {
      "inputs": [
        {
          "internalType": "bytes4",
          "name": "interfaceId",
          "type": "bytes4"
        }
      ],
      "name": "supportsInterface",
      "outputs": [
        {
          "internalType": "bool",
          "name": "",
          "type": "bool"
        }
      ],
      "stateMutability": "view",
      "type": "function"
    },
    {
      "inputs": [],
      "name": "symbol",
      "outputs": [
        {
          "internalType": "string",
          "name": "",
          "type": "string"
        }
      ],
      "stateMutability": "view",
      "type": "function"
    },
    {
      "inputs": [
        {
          "internalType": "uint256",
          "name": "tokenId",
          "type": "uint256"
        }
      ],
      "name": "tokenURI",
      "outputs": [
        {
          "internalType": "string",
          "name": "",
          "type": "string"
        }
      ],
      "stateMutability": "view",
      "type": "function"
    },
    {
      "inputs": [
        {
          "internalType": "address",
          "name": "from",
          "type": "address"
        },
        {
          "internalType": "address",
          "name": "to",
          "type": "address"
        },
        {
          "internalType": "uint256",
          "name": "tokenId",
          "type": "uint256"
        }
      ],
      "name": "transferFrom",
      "outputs": [],
      "stateMutability": "nonpayable",
      "type": "function"
    }
  ],
  "bytecode": "0x608060405260326008556040518060a001604052806069815260200162004b4960699139600990805190602001906200003a92919062000a43565b506040518060600160405280602f815260200162004d03602f9139600a90805190602001906200006c92919062000a43565b506040518060600160405280603b815260200162004d32603b9139600b90805190602001906200009e92919062000a43565b506040518060600160405280603b815260200162004b0e603b9139600c9080519060200190620000d092919062000a43565b5060405180608001604052806056815260200162004d6d60569139600d90805190602001906200010292919062000a43565b5060405180610160016040528061012f815260200162004bb261012f9139600e90805190602001906200013792919062000a43565b506040518061014001604052806040518060400160405280600b81526020017f446f73746f796576736b7900000000000000000000000000000000000000000081525081526020016040518060400160405280600581526020017f4b61666b6100000000000000000000000000000000000000000000000000000081525081526020016040518060400160405280600581526020017f4a6f79636500000000000000000000000000000000000000000000000000000081525081526020016040518060400160405280600681526020017f50726f757374000000000000000000000000000000000000000000000000000081525081526020016040518060400160405280600781526020017f44656c696c6c6f0000000000000000000000000000000000000000000000000081525081526020016040518060400160405280600681526020017f426f6c616e6f000000000000000000000000000000000000000000000000000081525081526020016040518060400160405280600781526020017f546f6c73746f790000000000000000000000000000000000000000000000000081525081526020016040518060400160405280600781526020017f4368656b686f760000000000000000000000000000000000000000000000000081525081526020016040518060400160405280600881526020017f4265726e6861726400000000000000000000000000000000000000000000000081525081526020016040518060400160405280600781526020017f4469636b656e7300000000000000000000000000000000000000000000000000815250815250600f90600a620003a292919062000ad4565b506040518060a001604052806040518060400160405280600581526020017f4c6f76657300000000000000000000000000000000000000000000000000000081525081526020016040518060400160405280600681526020017f41646f726573000000000000000000000000000000000000000000000000000081525081526020016040518060400160405280600681526020017f437261766573000000000000000000000000000000000000000000000000000081525081526020016040518060400160405280600581526020017f4c696b657300000000000000000000000000000000000000000000000000000081525081526020016040518060400160405280600a81526020017f44656d6f6c6973686573000000000000000000000000000000000000000000008152508152506010906005620004e592919062000b3b565b506040518061014001604052806040518060400160405280600581526020017f537573686900000000000000000000000000000000000000000000000000000081525081526020016040518060400160405280600781526020017f427572676572730000000000000000000000000000000000000000000000000081525081526020016040518060400160405280600681526020017f50697a7a6173000000000000000000000000000000000000000000000000000081525081526020016040518060400160405280600b81526020017f43686565736563616b657300000000000000000000000000000000000000000081525081526020016040518060400160405280600581526020017f43616b657300000000000000000000000000000000000000000000000000000081525081526020016040518060400160405280600781526020017f436f6f6b6965730000000000000000000000000000000000000000000000000081525081526020016040518060400160405280600581526020017f506173746100000000000000000000000000000000000000000000000000000081525081526020016040518060400160405280600981526020017f41766f6361646f6573000000000000000000000000000000000000000000000081525081526020016040518060400160405280600781526020017f566567676965730000000000000000000000000000000000000000000000000081525081526020016040518060400160405280600881526020017f506f7461746f6573000000000000000000000000000000000000000000000000815250815250601190600a6200075092919062000ad4565b506040518060a001604052806040518060400160405280600881526020017f232330363137344200000000000000000000000000000000000000000000000081525081526020016040518060400160405280600781526020017f234241333534380000000000000000000000000000000000000000000000000081525081526020016040518060400160405280600781526020017f234543353333330000000000000000000000000000000000000000000000000081525081526020016040518060400160405280600781526020017f234541433232460000000000000000000000000000000000000000000000000081525081526020016040518060400160405280600781526020017f233444393632440000000000000000000000000000000000000000000000000081525081525060129060056200089392919062000b3b565b50348015620008a157600080fd5b506040518060400160405280600681526020017f43797072757300000000000000000000000000000000000000000000000000008152506040518060400160405280600381526020017f437970000000000000000000000000000000000000000000000000000000000081525081600090805190602001906200092692919062000a43565b5080600190805190602001906200093f92919062000a43565b5050506200097160405180606001604052806022815260200162004ce1602291396200097760201b620013011760201c565b62000d5c565b62000a17816040516024016200098e919062000c70565b6040516020818303038152906040527f41304fac000000000000000000000000000000000000000000000000000000007bffffffffffffffffffffffffffffffffffffffffffffffffffffffff19166020820180517bffffffffffffffffffffffffffffffffffffffffffffffffffffffff838183161783525050505062000a1a60201b60201c565b50565b60008151905060006a636f6e736f6c652e6c6f679050602083016000808483855afa5050505050565b82805462000a519062000ce6565b90600052602060002090601f01602090048101928262000a75576000855562000ac1565b82601f1062000a9057805160ff191683800117855562000ac1565b8280016001018555821562000ac1579182015b8281111562000ac057825182559160200191906001019062000aa3565b5b50905062000ad0919062000ba2565b5090565b82805482825590600052602060002090810192821562000b28579160200282015b8281111562000b2757825182908051906020019062000b1692919062000a43565b509160200191906001019062000af5565b5b50905062000b37919062000bc1565b5090565b82805482825590600052602060002090810192821562000b8f579160200282015b8281111562000b8e57825182908051906020019062000b7d92919062000a43565b509160200191906001019062000b5c565b5b50905062000b9e919062000bc1565b5090565b5b8082111562000bbd57600081600090555060010162000ba3565b5090565b5b8082111562000be5576000818162000bdb919062000be9565b5060010162000bc2565b5090565b50805462000bf79062000ce6565b6000825580601f1062000c0b575062000c2c565b601f01602090049060005260206000209081019062000c2b919062000ba2565b5b50565b600062000c3c8262000c94565b62000c48818562000c9f565b935062000c5a81856020860162000cb0565b62000c658162000d4b565b840191505092915050565b6000602082019050818103600083015262000c8c818462000c2f565b905092915050565b600081519050919050565b600082825260208201905092915050565b60005b8381101562000cd057808201518184015260208101905062000cb3565b8381111562000ce0576000848401525b50505050565b6000600282049050600182168062000cff57607f821691505b6020821081141562000d165762000d1562000d1c565b5b50919050565b7f4e487b7100000000000000000000000000000000000000000000000000000000600052602260045260246000fd5b6000601f19601f8301169050919050565b613da28062000d6c6000396000f3fe608060405234801561001057600080fd5b50600436106101215760003560e01c806370a08231116100ad578063c87b56dd11610071578063c87b56dd1461032c578063de9d132f1461035c578063e985e9c514610366578063eb9edb7d14610396578063f65d5bbb146103c657610121565b806370a082311461027657806395d89b41146102a6578063a22cb465146102c4578063ab1b1ddb146102e0578063b88d4fde1461031057610121565b806323b872dd116100f457806323b872dd146101c05780633e91b9f3146101dc57806342842e0e1461020c5780635a2e6504146102285780636352211e1461024657610121565b806301ffc9a71461012657806306fdde0314610156578063081812fc14610174578063095ea7b3146101a4575b600080fd5b610140600480360381019061013b91906128d0565b6103f6565b60405161014d91906135c8565b60405180910390f35b61015e6104d8565b60405161016b91906135e3565b60405180910390f35b61018e60048036038101906101899190612922565b61056a565b60405161019b9190613538565b60405180910390f35b6101be60048036038101906101b99190612894565b6105ef565b005b6101da60048036038101906101d5919061278e565b610707565b005b6101f660048036038101906101f19190612922565b610767565b60405161020391906135e3565b60405180910390f35b6102266004803603810190610221919061278e565b610885565b005b6102306108a5565b60405161023d9190613893565b60405180910390f35b610260600480360381019061025b9190612922565b6108b6565b60405161026d9190613538565b60405180910390f35b610290600480360381019061028b9190612729565b610968565b60405161029d9190613893565b60405180910390f35b6102ae610a20565b6040516102bb91906135e3565b60405180910390f35b6102de60048036038101906102d99190612858565b610ab2565b005b6102fa60048036038101906102f59190612922565b610ac8565b60405161030791906135e3565b60405180910390f35b61032a600480360381019061032591906127dd565b610be6565b005b61034660048036038101906103419190612922565b610c48565b60405161035391906135e3565b60405180910390f35b610364610d9a565b005b610380600480360381019061037b9190612752565b611031565b60405161038d91906135c8565b60405180910390f35b6103b060048036038101906103ab9190612922565b6110c5565b6040516103bd91906135e3565b60405180910390f35b6103e060048036038101906103db9190612922565b6111e3565b6040516103ed91906135e3565b60405180910390f35b60007f80ac58cd000000000000000000000000000000000000000000000000000000007bffffffffffffffffffffffffffffffffffffffffffffffffffffffff1916827bffffffffffffffffffffffffffffffffffffffffffffffffffffffff191614806104c157507f5b5e139f000000000000000000000000000000000000000000000000000000007bffffffffffffffffffffffffffffffffffffffffffffffffffffffff1916827bffffffffffffffffffffffffffffffffffffffffffffffffffffffff1916145b806104d157506104d08261139a565b5b9050919050565b6060600080546104e790613b32565b80601f016020809104026020016040519081016040528092919081815260200182805461051390613b32565b80156105605780601f1061053557610100808354040283529160200191610560565b820191906000526020600020905b81548152906001019060200180831161054357829003601f168201915b5050505050905090565b600061057582611404565b6105b4576040517f08c379a00000000000000000000000000000000000000000000000000000000081526004016105ab906137d3565b60405180910390fd5b6004600083815260200190815260200160002060009054906101000a900473ffffffffffffffffffffffffffffffffffffffff169050919050565b60006105fa826108b6565b90508073ffffffffffffffffffffffffffffffffffffffff168373ffffffffffffffffffffffffffffffffffffffff16141561066b576040517f08c379a000000000000000000000000000000000000000000000000000000000815260040161066290613853565b60405180910390fd5b8073ffffffffffffffffffffffffffffffffffffffff1661068a611470565b73ffffffffffffffffffffffffffffffffffffffff1614806106b957506106b8816106b3611470565b611031565b5b6106f8576040517f08c379a00000000000000000000000000000000000000000000000000000000081526004016106ef90613713565b60405180910390fd5b6107028383611478565b505050565b610718610712611470565b82611531565b610757576040517f08c379a000000000000000000000000000000000000000000000000000000000815260040161074e90613873565b60405180910390fd5b61076283838361160f565b505050565b6060600061079b6107778461186b565b6040516020016107879190613449565b604051602081830303815290604052611a18565b9050601180549050816107ae9190613bad565b9050601181815481106107ea577f4e487b7100000000000000000000000000000000000000000000000000000000600052603260045260246000fd5b9060005260206000200180546107ff90613b32565b80601f016020809104026020016040519081016040528092919081815260200182805461082b90613b32565b80156108785780601f1061084d57610100808354040283529160200191610878565b820191906000526020600020905b81548152906001019060200180831161085b57829003601f168201915b5050505050915050919050565b6108a083838360405180602001604052806000815250610be6565b505050565b60006108b16007611a4b565b905090565b6000806002600084815260200190815260200160002060009054906101000a900473ffffffffffffffffffffffffffffffffffffffff169050600073ffffffffffffffffffffffffffffffffffffffff168173ffffffffffffffffffffffffffffffffffffffff16141561095f576040517f08c379a000000000000000000000000000000000000000000000000000000000815260040161095690613753565b60405180910390fd5b80915050919050565b60008073ffffffffffffffffffffffffffffffffffffffff168273ffffffffffffffffffffffffffffffffffffffff1614156109d9576040517f08c379a00000000000000000000000000000000000000000000000000000000081526004016109d090613733565b60405180910390fd5b600360008373ffffffffffffffffffffffffffffffffffffffff1673ffffffffffffffffffffffffffffffffffffffff168152602001908152602001600020549050919050565b606060018054610a2f90613b32565b80601f0160208091040260200160405190810160405280929190818152602001828054610a5b90613b32565b8015610aa85780601f10610a7d57610100808354040283529160200191610aa8565b820191906000526020600020905b815481529060010190602001808311610a8b57829003601f168201915b5050505050905090565b610ac4610abd611470565b8383611a59565b5050565b60606000610afc610ad88461186b565b604051602001610ae8919061346b565b604051602081830303815290604052611a18565b905060108054905081610b0f9190613bad565b905060108181548110610b4b577f4e487b7100000000000000000000000000000000000000000000000000000000600052603260045260246000fd5b906000526020600020018054610b6090613b32565b80601f0160208091040260200160405190810160405280929190818152602001828054610b8c90613b32565b8015610bd95780601f10610bae57610100808354040283529160200191610bd9565b820191906000526020600020905b815481529060010190602001808311610bbc57829003601f168201915b5050505050915050919050565b610bf7610bf1611470565b83611531565b610c36576040517f08c379a0000000000000000000000000000000000000000000000000000000008152600401610c2d90613873565b60405180910390fd5b610c4284848484611bc6565b50505050565b6060610c5382611404565b610c92576040517f08c379a0000000000000000000000000000000000000000000000000000000008152600401610c89906137b3565b60405180910390fd5b6000600660008481526020019081526020016000208054610cb290613b32565b80601f0160208091040260200160405190810160405280929190818152602001828054610cde90613b32565b8015610d2b5780601f10610d0057610100808354040283529160200191610d2b565b820191906000526020600020905b815481529060010190602001808311610d0e57829003601f168201915b505050505090506000610d3c611c22565b9050600081511415610d52578192505050610d95565b600082511115610d87578082604051602001610d6f929190613391565b60405160208183030381529060405292505050610d95565b610d9084611c39565b925050505b919050565b6000610da66007611a4b565b90506008548110610dec576040517f08c379a0000000000000000000000000000000000000000000000000000000008152600401610de390613833565b60405180910390fd5b610e326040518060400160405280601581526020017f746f74616c206d696e74656420736f206661723a200000000000000000000000815250610e2d6108a5565b611ce0565b6000610e3d826111e3565b90506000610e4a83610ac8565b90506000610e5784610767565b90506000838383604051602001610e70939291906133b5565b60405160208183030381529060405290506000610e8c866110c5565b90506000610e9982611d7c565b90506000600982600a85600d88604051602001610ebb969594939291906133e6565b60405160208183030381529060405290506000610f0085610edb84611eaf565b604051602001610eec92919061348d565b604051602081830303815290604052611eaf565b9050600081604051602001610f1591906134f4565b6040516020818303038152906040529050610f646040518060400160405280601581526020017f0a2d2d2d2d2d2d2d2d2d2d2d2d2d2d2d2d2d2d2d2d0000000000000000000000815250611301565b610f6d81611301565b610fab6040518060400160405280601581526020017f2d2d2d2d2d2d2d2d2d2d2d2d2d2d2d2d2d2d2d2d0a0000000000000000000000815250611301565b610fb5338b61206d565b610fbf8a8261208b565b610fe2604051806060016040528060258152602001613d08602591398b336120ff565b610fec600761219e565b7febb98688741ffa4c7589bf325de30cf7becb63de567842e1ccdb6cb949fdc82c338b60405161101d92919061359f565b60405180910390a150505050505050505050565b6000600560008473ffffffffffffffffffffffffffffffffffffffff1673ffffffffffffffffffffffffffffffffffffffff16815260200190815260200160002060008373ffffffffffffffffffffffffffffffffffffffff1673ffffffffffffffffffffffffffffffffffffffff16815260200190815260200160002060009054906101000a900460ff16905092915050565b606060006110f96110d58461186b565b6040516020016110e59190613516565b604051602081830303815290604052611a18565b90506012805490508161110c9190613bad565b905060128181548110611148577f4e487b7100000000000000000000000000000000000000000000000000000000600052603260045260246000fd5b90600052602060002001805461115d90613b32565b80601f016020809104026020016040519081016040528092919081815260200182805461118990613b32565b80156111d65780601f106111ab576101008083540402835291602001916111d6565b820191906000526020600020905b8154815290600101906020018083116111b957829003601f168201915b5050505050915050919050565b606060006112176111f38461186b565b60405160200161120391906134d2565b604051602081830303815290604052611a18565b9050600f805490508161122a9190613bad565b9050600f8181548110611266577f4e487b7100000000000000000000000000000000000000000000000000000000600052603260045260246000fd5b90600052602060002001805461127b90613b32565b80601f01602080910402602001604051908101604052809291908181526020018280546112a790613b32565b80156112f45780601f106112c9576101008083540402835291602001916112f4565b820191906000526020600020905b8154815290600101906020018083116112d757829003601f168201915b5050505050915050919050565b6113978160405160240161131591906135e3565b6040516020818303038152906040527f41304fac000000000000000000000000000000000000000000000000000000007bffffffffffffffffffffffffffffffffffffffffffffffffffffffff19166020820180517bffffffffffffffffffffffffffffffffffffffffffffffffffffffff83818316178352505050506121b4565b50565b60007f01ffc9a7000000000000000000000000000000000000000000000000000000007bffffffffffffffffffffffffffffffffffffffffffffffffffffffff1916827bffffffffffffffffffffffffffffffffffffffffffffffffffffffff1916149050919050565b60008073ffffffffffffffffffffffffffffffffffffffff166002600084815260200190815260200160002060009054906101000a900473ffffffffffffffffffffffffffffffffffffffff1673ffffffffffffffffffffffffffffffffffffffff1614159050919050565b600033905090565b816004600083815260200190815260200160002060006101000a81548173ffffffffffffffffffffffffffffffffffffffff021916908373ffffffffffffffffffffffffffffffffffffffff160217905550808273ffffffffffffffffffffffffffffffffffffffff166114eb836108b6565b73ffffffffffffffffffffffffffffffffffffffff167f8c5be1e5ebec7d5bd14f71427d1e84f3dd0314c0f7b2291e5b200ac8c7c3b92560405160405180910390a45050565b600061153c82611404565b61157b576040517f08c379a0000000000000000000000000000000000000000000000000000000008152600401611572906136f3565b60405180910390fd5b6000611586836108b6565b90508073ffffffffffffffffffffffffffffffffffffffff168473ffffffffffffffffffffffffffffffffffffffff1614806115f557508373ffffffffffffffffffffffffffffffffffffffff166115dd8461056a565b73ffffffffffffffffffffffffffffffffffffffff16145b8061160657506116058185611031565b5b91505092915050565b8273ffffffffffffffffffffffffffffffffffffffff1661162f826108b6565b73ffffffffffffffffffffffffffffffffffffffff1614611685576040517f08c379a000000000000000000000000000000000000000000000000000000000815260040161167c906137f3565b60405180910390fd5b600073ffffffffffffffffffffffffffffffffffffffff168273ffffffffffffffffffffffffffffffffffffffff1614156116f5576040517f08c379a00000000000000000000000000000000000000000000000000000000081526004016116ec906136b3565b60405180910390fd5b6117008383836121dd565b61170b600082611478565b6001600360008573ffffffffffffffffffffffffffffffffffffffff1673ffffffffffffffffffffffffffffffffffffffff168152602001908152602001600020600082825461175b9190613a48565b925050819055506001600360008473ffffffffffffffffffffffffffffffffffffffff1673ffffffffffffffffffffffffffffffffffffffff16815260200190815260200160002060008282546117b29190613967565b92505081905550816002600083815260200190815260200160002060006101000a81548173ffffffffffffffffffffffffffffffffffffffff021916908373ffffffffffffffffffffffffffffffffffffffff160217905550808273ffffffffffffffffffffffffffffffffffffffff168473ffffffffffffffffffffffffffffffffffffffff167fddf252ad1be2c89b69c2b068fc378daa952ba7f163c4a11628f55a4df523b3ef60405160405180910390a4505050565b606060008214156118b3576040518060400160405280600181526020017f30000000000000000000000000000000000000000000000000000000000000008152509050611a13565b600082905060005b600082146118e55780806118ce90613b64565b915050600a826118de91906139bd565b91506118bb565b60008167ffffffffffffffff811115611927577f4e487b7100000000000000000000000000000000000000000000000000000000600052604160045260246000fd5b6040519080825280601f01601f1916602001820160405280156119595781602001600182028036833780820191505090505b5090505b60008514611a0c576001826119729190613a48565b9150600a856119819190613bad565b603061198d9190613967565b60f81b8183815181106119c9577f4e487b7100000000000000000000000000000000000000000000000000000000600052603260045260246000fd5b60200101907effffffffffffffffffffffffffffffffffffffffffffffffffffffffffffff1916908160001a905350600a85611a0591906139bd565b945061195d565b8093505050505b919050565b600081604051602001611a2b919061337a565b6040516020818303038152906040528051906020012060001c9050919050565b600081600001549050919050565b8173ffffffffffffffffffffffffffffffffffffffff168373ffffffffffffffffffffffffffffffffffffffff161415611ac8576040517f08c379a0000000000000000000000000000000000000000000000000000000008152600401611abf906136d3565b60405180910390fd5b80600560008573ffffffffffffffffffffffffffffffffffffffff1673ffffffffffffffffffffffffffffffffffffffff16815260200190815260200160002060008473ffffffffffffffffffffffffffffffffffffffff1673ffffffffffffffffffffffffffffffffffffffff16815260200190815260200160002060006101000a81548160ff0219169083151502179055508173ffffffffffffffffffffffffffffffffffffffff168373ffffffffffffffffffffffffffffffffffffffff167f17307eab39ab6107e8899845ad3d59bd9653f200f220920489ca2b5937696c3183604051611bb991906135c8565b60405180910390a3505050565b611bd184848461160f565b611bdd848484846121e2565b611c1c576040517f08c379a0000000000000000000000000000000000000000000000000000000008152600401611c1390613673565b60405180910390fd5b50505050565b606060405180602001604052806000815250905090565b6060611c4482611404565b611c83576040517f08c379a0000000000000000000000000000000000000000000000000000000008152600401611c7a90613813565b60405180910390fd5b6000611c8d611c22565b90506000815111611cad5760405180602001604052806000815250611cd8565b80611cb78461186b565b604051602001611cc8929190613391565b6040516020818303038152906040525b915050919050565b611d788282604051602401611cf6929190613605565b6040516020818303038152906040527f9710a9d0000000000000000000000000000000000000000000000000000000007bffffffffffffffffffffffffffffffffffffffffffffffffffffffff19166020820180517bffffffffffffffffffffffffffffffffffffffffffffffffffffffff83818316178352505050506121b4565b5050565b60606040518060400160405280600781526020017f23454143323246000000000000000000000000000000000000000000000000008152508051906020012082805190602001201480611e1157506040518060400160405280600781526020017f2345433533333300000000000000000000000000000000000000000000000000815250805190602001208280519060200120145b611e1c57600c611e1f565b600b5b8054611e2a90613b32565b80601f0160208091040260200160405190810160405280929190818152602001828054611e5690613b32565b8015611ea35780601f10611e7857610100808354040283529160200191611ea3565b820191906000526020600020905b815481529060010190602001808311611e8657829003601f168201915b50505050509050919050565b60606000825190506000811415611ed85760405180602001604052806000815250915050612068565b60006003600283611ee99190613967565b611ef391906139bd565b6004611eff91906139ee565b90506000602082611f109190613967565b67ffffffffffffffff811115611f4f577f4e487b7100000000000000000000000000000000000000000000000000000000600052604160045260246000fd5b6040519080825280601f01601f191660200182016040528015611f815781602001600182028036833780820191505090505b5090506000604051806060016040528060408152602001613d2d604091399050600181016020830160005b868110156120255760038101905062ffffff818a015116603f8160121c168401518060081b905060ff603f83600c1c1686015116810190508060081b905060ff603f8360061c1686015116810190508060081b905060ff603f831686015116810190508060e01b90508084526004840193505050611fac565b50600386066001811461203f576002811461204f5761205a565b613d3d60f01b600283035261205a565b603d60f81b60018303525b508484525050819450505050505b919050565b612087828260405180602001604052806000815250612379565b5050565b61209482611404565b6120d3576040517f08c379a00000000000000000000000000000000000000000000000000000000081526004016120ca90613773565b60405180910390fd5b806006600084815260200190815260200160002090805190602001906120fa9291906125b5565b505050565b61219983838360405160240161211793929190613635565b6040516020818303038152906040527fe3849f79000000000000000000000000000000000000000000000000000000007bffffffffffffffffffffffffffffffffffffffffffffffffffffffff19166020820180517bffffffffffffffffffffffffffffffffffffffffffffffffffffffff83818316178352505050506121b4565b505050565b6001816000016000828254019250508190555050565b60008151905060006a636f6e736f6c652e6c6f679050602083016000808483855afa5050505050565b505050565b60006122038473ffffffffffffffffffffffffffffffffffffffff166123d4565b1561236c578373ffffffffffffffffffffffffffffffffffffffff1663150b7a0261222c611470565b8786866040518563ffffffff1660e01b815260040161224e9493929190613553565b602060405180830381600087803b15801561226857600080fd5b505af192505050801561229957506040513d601f19601f8201168201806040525081019061229691906128f9565b60015b61231c573d80600081146122c9576040519150601f19603f3d011682016040523d82523d6000602084013e6122ce565b606091505b50600081511415612314576040517f08c379a000000000000000000000000000000000000000000000000000000000815260040161230b90613673565b60405180910390fd5b805181602001fd5b63150b7a0260e01b7bffffffffffffffffffffffffffffffffffffffffffffffffffffffff1916817bffffffffffffffffffffffffffffffffffffffffffffffffffffffff191614915050612371565b600190505b949350505050565b61238383836123e7565b61239060008484846121e2565b6123cf576040517f08c379a00000000000000000000000000000000000000000000000000000000081526004016123c690613673565b60405180910390fd5b505050565b600080823b905060008111915050919050565b600073ffffffffffffffffffffffffffffffffffffffff168273ffffffffffffffffffffffffffffffffffffffff161415612457576040517f08c379a000000000000000000000000000000000000000000000000000000000815260040161244e90613793565b60405180910390fd5b61246081611404565b156124a0576040517f08c379a000000000000000000000000000000000000000000000000000000000815260040161249790613693565b60405180910390fd5b6124ac600083836121dd565b6001600360008473ffffffffffffffffffffffffffffffffffffffff1673ffffffffffffffffffffffffffffffffffffffff16815260200190815260200160002060008282546124fc9190613967565b92505081905550816002600083815260200190815260200160002060006101000a81548173ffffffffffffffffffffffffffffffffffffffff021916908373ffffffffffffffffffffffffffffffffffffffff160217905550808273ffffffffffffffffffffffffffffffffffffffff16600073ffffffffffffffffffffffffffffffffffffffff167fddf252ad1be2c89b69c2b068fc378daa952ba7f163c4a11628f55a4df523b3ef60405160405180910390a45050565b8280546125c190613b32565b90600052602060002090601f0160209004810192826125e3576000855561262a565b82601f106125fc57805160ff191683800117855561262a565b8280016001018555821561262a579182015b8281111561262957825182559160200191906001019061260e565b5b509050612637919061263b565b5090565b5b8082111561265457600081600090555060010161263c565b5090565b600061266b612666846138df565b6138ae565b90508281526020810184848401111561268357600080fd5b61268e848285613af0565b509392505050565b6000813590506126a581613cab565b92915050565b6000813590506126ba81613cc2565b92915050565b6000813590506126cf81613cd9565b92915050565b6000815190506126e481613cd9565b92915050565b600082601f8301126126fb57600080fd5b813561270b848260208601612658565b91505092915050565b60008135905061272381613cf0565b92915050565b60006020828403121561273b57600080fd5b600061274984828501612696565b91505092915050565b6000806040838503121561276557600080fd5b600061277385828601612696565b925050602061278485828601612696565b9150509250929050565b6000806000606084860312156127a357600080fd5b60006127b186828701612696565b93505060206127c286828701612696565b92505060406127d386828701612714565b9150509250925092565b600080600080608085870312156127f357600080fd5b600061280187828801612696565b945050602061281287828801612696565b935050604061282387828801612714565b925050606085013567ffffffffffffffff81111561284057600080fd5b61284c878288016126ea565b91505092959194509250565b6000806040838503121561286b57600080fd5b600061287985828601612696565b925050602061288a858286016126ab565b9150509250929050565b600080604083850312156128a757600080fd5b60006128b585828601612696565b92505060206128c685828601612714565b9150509250929050565b6000602082840312156128e257600080fd5b60006128f0848285016126c0565b91505092915050565b60006020828403121561290b57600080fd5b6000612919848285016126d5565b91505092915050565b60006020828403121561293457600080fd5b600061294284828501612714565b91505092915050565b61295481613a7c565b82525050565b61296381613a8e565b82525050565b600061297482613924565b61297e818561393a565b935061298e818560208601613aff565b61299781613c9a565b840191505092915050565b60006129ad8261392f565b6129b7818561394b565b93506129c7818560208601613aff565b6129d081613c9a565b840191505092915050565b60006129e68261392f565b6129f0818561395c565b9350612a00818560208601613aff565b80840191505092915050565b60008154612a1981613b32565b612a23818661395c565b94506001821660008114612a3e5760018114612a4f57612a82565b60ff19831686528186019350612a82565b612a588561390f565b60005b83811015612a7a57815481890152600182019150602081019050612a5b565b838801955050505b50505092915050565b6000612a9860328361394b565b91507f4552433732313a207472616e7366657220746f206e6f6e20455243373231526560008301527f63656976657220696d706c656d656e74657200000000000000000000000000006020830152604082019050919050565b6000612afe601c8361394b565b91507f4552433732313a20746f6b656e20616c7265616479206d696e746564000000006000830152602082019050919050565b6000612b3e600a8361395c565b91507f54484952445f574f5244000000000000000000000000000000000000000000006000830152600a82019050919050565b6000612b7e60248361394b565b91507f4552433732313a207472616e7366657220746f20746865207a65726f2061646460008301527f72657373000000000000000000000000000000000000000000000000000000006020830152604082019050919050565b6000612be460198361394b565b91507f4552433732313a20617070726f766520746f2063616c6c6572000000000000006000830152602082019050919050565b6000612c24600b8361395c565b91507f5345434f4e445f574f52440000000000000000000000000000000000000000006000830152600b82019050919050565b6000612c64602c8361394b565b91507f4552433732313a206f70657261746f7220717565727920666f72206e6f6e657860008301527f697374656e7420746f6b656e00000000000000000000000000000000000000006020830152604082019050919050565b6000612cca600d8361395c565b91507f3c2f746578743e3c2f7376673e000000000000000000000000000000000000006000830152600d82019050919050565b6000612d0a60388361394b565b91507f4552433732313a20617070726f76652063616c6c6572206973206e6f74206f7760008301527f6e6572206e6f7220617070726f76656420666f7220616c6c00000000000000006020830152604082019050919050565b6000612d70604d8361395c565b91507f222c20226465736372697074696f6e223a20224845204953204154204954204160008301527f4741494e2121222c2022696d616765223a2022646174613a696d6167652f737660208301527f672b786d6c3b6261736536342c000000000000000000000000000000000000006040830152604d82019050919050565b6000612dfc602a8361394b565b91507f4552433732313a2062616c616e636520717565727920666f7220746865207a6560008301527f726f2061646472657373000000000000000000000000000000000000000000006020830152604082019050919050565b6000612e6260298361394b565b91507f4552433732313a206f776e657220717565727920666f72206e6f6e657869737460008301527f656e7420746f6b656e00000000000000000000000000000000000000000000006020830152604082019050919050565b6000612ec8602e8361394b565b91507f45524337323155524953746f726167653a2055524920736574206f66206e6f6e60008301527f6578697374656e7420746f6b656e0000000000000000000000000000000000006020830152604082019050919050565b6000612f2e60028361395c565b91507f227d0000000000000000000000000000000000000000000000000000000000006000830152600282019050919050565b6000612f6e60208361394b565b91507f4552433732313a206d696e7420746f20746865207a65726f20616464726573736000830152602082019050919050565b6000612fae60318361394b565b91507f45524337323155524953746f726167653a2055524920717565727920666f722060008301527f6e6f6e6578697374656e7420746f6b656e0000000000000000000000000000006020830152604082019050919050565b6000613014602c8361394b565b91507f4552433732313a20617070726f76656420717565727920666f72206e6f6e657860008301527f697374656e7420746f6b656e00000000000000000000000000000000000000006020830152604082019050919050565b600061307a60298361394b565b91507f4552433732313a207472616e73666572206f6620746f6b656e2074686174206960008301527f73206e6f74206f776e00000000000000000000000000000000000000000000006020830152604082019050919050565b60006130e0602f8361394b565b91507f4552433732314d657461646174613a2055524920717565727920666f72206e6f60008301527f6e6578697374656e7420746f6b656e00000000000000000000000000000000006020830152604082019050919050565b6000613146600a8361395c565b91507f7b226e616d65223a2022000000000000000000000000000000000000000000006000830152600a82019050919050565b600061318660278361394b565b91507f546865204e4654206d696e74696e67206c696d697420686173206265656e207260008301527f65616368656421000000000000000000000000000000000000000000000000006020830152604082019050919050565b60006131ec60218361394b565b91507f4552433732313a20617070726f76616c20746f2063757272656e74206f776e6560008301527f72000000000000000000000000000000000000000000000000000000000000006020830152604082019050919050565b6000613252600a8361395c565b91507f46495253545f574f5244000000000000000000000000000000000000000000006000830152600a82019050919050565b6000613292601d8361395c565b91507f646174613a6170706c69636174696f6e2f6a736f6e3b6261736536342c0000006000830152601d82019050919050565b60006132d260068361395c565b91507f434f4c4f555200000000000000000000000000000000000000000000000000006000830152600682019050919050565b600061331260318361394b565b91507f4552433732313a207472616e736665722063616c6c6572206973206e6f74206f60008301527f776e6572206e6f7220617070726f7665640000000000000000000000000000006020830152604082019050919050565b61337481613ae6565b82525050565b600061338682846129db565b915081905092915050565b600061339d82856129db565b91506133a982846129db565b91508190509392505050565b60006133c182866129db565b91506133cd82856129db565b91506133d982846129db565b9150819050949350505050565b60006133f28289612a0c565b91506133fe82886129db565b915061340a8287612a0c565b915061341682866129db565b91506134228285612a0c565b915061342e82846129db565b915061343982612cbd565b9150819050979650505050505050565b600061345482612b31565b915061346082846129db565b915081905092915050565b600061347682612c17565b915061348282846129db565b915081905092915050565b600061349882613139565b91506134a482856129db565b91506134af82612d63565b91506134bb82846129db565b91506134c682612f21565b91508190509392505050565b60006134dd82613245565b91506134e982846129db565b915081905092915050565b60006134ff82613285565b915061350b82846129db565b915081905092915050565b6000613521826132c5565b915061352d82846129db565b915081905092915050565b600060208201905061354d600083018461294b565b92915050565b6000608082019050613568600083018761294b565b613575602083018661294b565b613582604083018561336b565b81810360608301526135948184612969565b905095945050505050565b60006040820190506135b4600083018561294b565b6135c1602083018461336b565b9392505050565b60006020820190506135dd600083018461295a565b92915050565b600060208201905081810360008301526135fd81846129a2565b905092915050565b6000604082019050818103600083015261361f81856129a2565b905061362e602083018461336b565b9392505050565b6000606082019050818103600083015261364f81866129a2565b905061365e602083018561336b565b61366b604083018461294b565b949350505050565b6000602082019050818103600083015261368c81612a8b565b9050919050565b600060208201905081810360008301526136ac81612af1565b9050919050565b600060208201905081810360008301526136cc81612b71565b9050919050565b600060208201905081810360008301526136ec81612bd7565b9050919050565b6000602082019050818103600083015261370c81612c57565b9050919050565b6000602082019050818103600083015261372c81612cfd565b9050919050565b6000602082019050818103600083015261374c81612def565b9050919050565b6000602082019050818103600083015261376c81612e55565b9050919050565b6000602082019050818103600083015261378c81612ebb565b9050919050565b600060208201905081810360008301526137ac81612f61565b9050919050565b600060208201905081810360008301526137cc81612fa1565b9050919050565b600060208201905081810360008301526137ec81613007565b9050919050565b6000602082019050818103600083015261380c8161306d565b9050919050565b6000602082019050818103600083015261382c816130d3565b9050919050565b6000602082019050818103600083015261384c81613179565b9050919050565b6000602082019050818103600083015261386c816131df565b9050919050565b6000602082019050818103600083015261388c81613305565b9050919050565b60006020820190506138a8600083018461336b565b92915050565b6000604051905081810181811067ffffffffffffffff821117156138d5576138d4613c6b565b5b8060405250919050565b600067ffffffffffffffff8211156138fa576138f9613c6b565b5b601f19601f8301169050602081019050919050565b60008190508160005260206000209050919050565b600081519050919050565b600081519050919050565b600082825260208201905092915050565b600082825260208201905092915050565b600081905092915050565b600061397282613ae6565b915061397d83613ae6565b9250827fffffffffffffffffffffffffffffffffffffffffffffffffffffffffffffffff038211156139b2576139b1613bde565b5b828201905092915050565b60006139c882613ae6565b91506139d383613ae6565b9250826139e3576139e2613c0d565b5b828204905092915050565b60006139f982613ae6565b9150613a0483613ae6565b9250817fffffffffffffffffffffffffffffffffffffffffffffffffffffffffffffffff0483118215151615613a3d57613a3c613bde565b5b828202905092915050565b6000613a5382613ae6565b9150613a5e83613ae6565b925082821015613a7157613a70613bde565b5b828203905092915050565b6000613a8782613ac6565b9050919050565b60008115159050919050565b60007fffffffff0000000000000000000000000000000000000000000000000000000082169050919050565b600073ffffffffffffffffffffffffffffffffffffffff82169050919050565b6000819050919050565b82818337600083830152505050565b60005b83811015613b1d578082015181840152602081019050613b02565b83811115613b2c576000848401525b50505050565b60006002820490506001821680613b4a57607f821691505b60208210811415613b5e57613b5d613c3c565b5b50919050565b6000613b6f82613ae6565b91507fffffffffffffffffffffffffffffffffffffffffffffffffffffffffffffffff821415613ba257613ba1613bde565b5b600182019050919050565b6000613bb882613ae6565b9150613bc383613ae6565b925082613bd357613bd2613c0d565b5b828206905092915050565b7f4e487b7100000000000000000000000000000000000000000000000000000000600052601160045260246000fd5b7f4e487b7100000000000000000000000000000000000000000000000000000000600052601260045260246000fd5b7f4e487b7100000000000000000000000000000000000000000000000000000000600052602260045260246000fd5b7f4e487b7100000000000000000000000000000000000000000000000000000000600052604160045260246000fd5b6000601f19601f8301169050919050565b613cb481613a7c565b8114613cbf57600080fd5b50565b613ccb81613a8e565b8114613cd657600080fd5b50565b613ce281613a9a565b8114613ced57600080fd5b50565b613cf981613ae6565b8114613d0457600080fd5b5056fe416e204e465420772f20494420257320686173206265656e206d696e74656420746f2025734142434445464748494a4b4c4d4e4f505152535455565758595a6162636465666768696a6b6c6d6e6f707172737475767778797a303132333435363738392b2fa264697066735822122089beaefb702c080122858e51621bf5d4839bc330dbd32adcea0698f96018427a64736f6c634300080000332e62617365207b2066696c6c3a2077686974653b20666f6e742d66616d696c793a2073657269663b20666f6e742d73697a653a20323470783b207d3c73766720786d6c6e733d27687474703a2f2f7777772e77332e6f72672f323030302f73766727207072657365727665417370656374526174696f3d27784d696e594d696e206d656574272076696577426f783d273020302033353020333530273e3c7374796c653e3c73766720786d6c6e733d27687474703a2f2f7777772e77332e6f72672f323030302f73766727207072657365727665417370656374526174696f3d27784d696e594d696e206d656574272076696577426f783d273020302033353020333530273e3c7374796c653e2e62617365207b2066696c6c3a2077686974653b20666f6e742d66616d696c793a2073657269663b20666f6e742d73697a653a20323470783b207d3c2f7374796c653e3c726563742077696474683d273130302527206865696768743d2731303025272066696c6c3d27626c61636b27202f3e3c7465787420783d273530252720793d273530252720636c6173733d27626173652720646f6d696e616e742d626173656c696e653d276d6964646c652720746578742d616e63686f723d276d6964646c65273e50726f666573736f72204c6f636b646f776e20697320617420697420414741494e213c2f7374796c653e3c726563742077696474683d273130302527206865696768743d2731303025272066696c6c3d272e62617365207b2066696c6c3a20626c61636b3b20666f6e742d66616d696c793a2073657269663b20666f6e742d73697a653a20323470783b207d272f3e3c7465787420783d273530252720793d273530252720636c6173733d27626173652720646f6d696e616e742d626173656c696e653d276d6964646c652720746578742d616e63686f723d276d6964646c65273e",
  "linkReferences": {},
  "deployedLinkReferences": {}
}